:101000000000042015E800003DE800003FE8000073
:1010100041E8000043E8000045E80000000000004F
:1010200000000000000000000000000047E8000091
:1010300049E80000000000004BE800004DE8000017
:10104000C5B8000089A300004FE800004FE8000089
:101050004FE800004FE800004FE800004FE80000B4
:101060004FE800004FE800004FE800004FE80000A4
:101070004FE80000594200004FE800004FE8000030
:101080004FE800004FE800004FE800004FE8000084
:101090004FE800004FE800004FE800004FE8000074
:1010A0004FE800004FE800004FE800004FE8000064
:1010B0004FE800004FE800000000000000000000C2
:1010C0004FE800004FE800004FE800004FE8000044
:1010D000653500004FE800004FE8000091C70000B0
:1010E0004FE800004FE800004FE80000000000005B
:1010F000000000004FE80000000000004FE8000082
:1011000000000000000000000000000000000000DF
:1011100000000000000000000000000000000000CF
:1011200000000000000000000000000000000000BF
:1011300000000000000000000000000000000000AF
:10114000000000000000000000000000000000009F
:10115000000000000000000000000000000000008F
:10116000000000000000000000000000000000007F
:10117000000000000000000000000000000000006F
:10118000000000000000000000000000000000005F
:10119000000000000000000000000000000000004F
:1011A000000000000000000000000000000000003F
:1011B000000000000000000000000000000000002F
:1011C000000000000000000000000000000000001F
:1011D000000000000000000000000000000000000F
:1011E00000000000000000000000000000000000FF
:1011F00000000000000000000000000000000000EF
:101200000348044B834202D0034B03B11847704795
:10121000D0000020D0000020000000000548064952
:10122000091A891001EBD171491002D0034B03B1A7
:1012300018477047D0000020D000002000000000B8
:1012400010B5064C237843B9FFF7DAFF044B13B10E
:101250000448AFF300800123237010BDD0000020AC
:1012600000000000D423010008B5044B1BB1044961
:101270000448AFF30080BDE80840CFE7000000005D
:10128000D4000020D4230100A3F5803A704700BFAA
:10129000154B002B08BF114B9D46FFF7F5FF0021B2
:1012A0008B460F461148124A121A0EF0D7F90C4B12
:1012B000002B00D098470B4B002B00D09847002004
:1012C000002104000D000B480EF03EF80EF070F8FF
:1012D0002000290000F011F80EF03CF80000080092
:1012E000000000000000000000000420D0000020EA
:1012F000B85400207DF30000704770B505460E46D7
:101300003146284602F0C2FE03F0FCF9044600F024
:1013100019F802F0E5FE18B1204603F0F7F9EFE7FF
:10132000204603F0B3FA204602F0E0FEF1E710B5E4
:101330000C4603F0C5F9204610BD00F0FAB800F0E5
:10134000EFB8000010B5044603F09CF920460249AE
:10135000BDE8104000F042B82F13000070B50446FD
:10136000154600F089F904F64213C4F83C3904F537
:101370008A504FF40063C4F83859A4F8403904F691
:101380003C1141F26416043006F0F1F8A51904F599
:101390008A50234629460E4A0C3006F049F904F5D6
:1013A0008B5200231380AA1DA2514FF40072AA8011
:1013B00041F26C320748A35441F27032A118A05098
:1013C0004B60201D2246044905F0BEFB204670BD3F
:1013D00009160000F91400001514000010B5064CA1
:1013E0000A4601462046FFF7B9FF00F0C5F98442DE
:1013F00000D0FEE710BD00BFF0000020D0F83C296F
:1014000000F642139A4204D100F59B50103003F0CD
:10141000F5BA7047FFF7F2BF2DE9F04100F58B57A1
:101420000446051D013704F58B56284605F099FC46
:10143000337880B1022B13D0D4F83C5904F6421013
:101440002D1AA9B2002955D0D4F838399847ADB231
:1014500085424FD0FEE7012B31D08BB1022BE4D176
:1014600004F58A50043006F0BDF80028E4D141F2BA
:101470006C333070E218E35C002BD6D01070D2E7EA
:10148000204600F07FF908B102F0E4F8204600F0B1
:1014900083F90028D0D104F58A50043006F06BF8A7
:1014A0000028C9D1284605F0A8FC0123337028463E
:1014B00005F0B8FC60B9284605F0BDFC387004F5AD
:1014C0008A503978043006F05FF80028EFD0B3E78F
:1014D00094F89880284605F07FFDB8F1000F06D0FB
:1014E00094F898301BB941F26C330122E254022384
:1014F0003370B5E7BDE8F08108B500F03DF9BDE80F
:101500000840FFF789BF00F64213C0F83C394FF49A
:101510000063A0F8403900F59B50103003F06EBA1C
:1015200008B500F029F918B1BDE80840FFF7EBBF96
:1015300008BD38B504460D4600F01EF940B100F56F
:101540008A502A4621460C30BDE8384006F078B86B
:1015500038BD0000F0B50C46A1B016461F4600F09D
:1015600025F92346194A1A4D802168460EF082F962
:1015700068460EF025FA69460246002001F042F85E
:101580000024A742A0B20ED0292C0BD0A4EB8401DA
:1015900004EB4400335D2A46803168440EF06AF95A
:1015A0000134EEE7204600EB4000C0F18001094A1B
:1015B00068440EF05FF968460EF002FA0DF1010181
:1015C000421E002001F01EF821B0F0BD5C180100A1
:1015D000701801007618010041F26412F8B58718FE
:1015E0008358BD1D5B1B06469BB2144641B91A4683
:1015F000294600F06AFE4FF400733551BB80F8BDF8
:101600002A46FFF7A7FFF6E7FFF7E6BF1C282ED80C
:10161000DFE800F0300F11132D1517192D2D2D2D8A
:101620001B1D1F212D2D2D272D2D2D25232D2D2942
:101630002B00012070470E2070470B2070470C20B4
:10164000704709207047032070470220704704202C
:1016500070471120704712207047132070471420E4
:10166000704716207047172070471820704700F504
:10167000804070470020704770B50646044646F823
:10168000041B4FF4006200F1D101304605F04FFA1F
:101690000025266504F1540304F17402C3E90055E2
:1016A00008339A42FAD1A4F87450C4E91E5504F1E3
:1016B000800005F0D8FC2B4A84F898500421C823F8
:1016C00084F8C8102849C4F89C50C4E928234FF670
:1016D000FF73A4F8A8300968244BC4F8CC104FF06D
:1016E0007F410022C4E92B35C4F81419002304F506
:1016F0001361C4E92E23C4E93023C4F8B45084F83C
:10170000D05084F8D158A4F8D258C4F8105984F8AD
:101710001859C4F81C59C4F82059C4F82459C4F8FD
:10172000285984F82C59C1E90023236803B9FEE73E
:101730000F4B10491C602246304605F008FA3C2247
:10174000002104F6D4000DF089FF7722002104F176
:10175000B80001F00FFB04F1AC0003F04FF9204694
:1017600070BD00BF00F8FF071C1E0100011B000038
:1017700068140020671B0000014B1868704700BF09
:101780006814002090F8C830042B1ABF90F8980015
:1017900080F001000020704790F8C830012B06BF90
:1017A00090F8980080F0010000207047D0F81C39B4
:1017B0000133C0F81C3970472DE9F843994690F879
:1017C00014390D1E0446904608BF702513B10D2034
:1017D000BDE8F88300F1B8062946304601F04AFB1F
:1017E0000028F4D194F8D22894F8D3389A420AD039
:1017F0000B220021304601F0BDFA04F1AC0003F0E9
:10180000FDF80320E4E704F150072B46062280216F
:10181000384605F02BFE48B91FFA89F24146206D83
:1018200005F0B0FB10B9384605F003FE0328CFD110
:10183000DEE70000013804289ABF024B185C002044
:10184000704700BF82180100F8B511F00F0508D1EC
:10185000022A04D11A462946B83001F08BFA2846EC
:10186000F8BD90F8D36890F8D278F41B0E2C06DD02
:101870000E220021B83001F07DFA0325EFE790F841
:10188000D148AC4218D0BE4216D93C460E2C02D9E3
:101890000F3CE4B2FAE704F50D7400EB840494F80D
:1018A00004C01CF0100F0DD00CF00F0EAE4509D186
:1018B0006FF3041C84F804C034460E2C05D90F3C89
:1018C000E4B2FAE70137FFB2DDE704F50D7400EB8F
:1018D00084040136257961F30305EDB245F0100566
:1018E00062F346152571626863F3DE1262600025BB
:1018F00080F8D368B3E713460222FFF7A5BF38B5D7
:1019000011F0300F00F1500408BFC0F89C201546BC
:1019100000230622204605F0A9FD48B929462046A5
:1019200005F0F0FC20B92046BDE8384005F081BD47
:1019300038BD2DE9F74304460E46684611469146E8
:10194000984600F093FEDDE900570DB9F90717D569
:1019500004F150084B4606223146404605F086FD0C
:10196000D8B97B10FA0704EB030044BFE3585D5974
:10197000A84790B9404603B0BDE8F04305F059BD13
:10198000B8F1000F07D00D223146204603B0BDE864
:10199000F043FFF7B4BF4246F6E703B0BDE8F0837B
:1019A00070B50446002694F8D25894F8D338AB4268
:1019B00038D005F50D7504EB85021379D90616D4D8
:1019C00004EB85052B796FF304132B7194F8D2384F
:1019D0000133DBB20F2B84F8D238E4D194F8D3383A
:1019E00084F8D2680E2B1AD90F3BDBB2FAE703F06A
:1019F0000F01526803F06003402B41F08001C2F3F5
:101A0000D71205D12046FFF77AFF0028D8D070BD45
:101A1000B3FA83F35B092046FFF78BFFF5E784F801
:101A2000D338C0E70020F2E72DE9F04FD0E92E23AC
:101A3000134385B004464FD0B83001F098F92E4FCB
:101A4000029000254FF00109029AEBB2934243D273
:101A5000D4E92E30C5F12001A5F12002EB4000FAB7
:101A600001F120FA02F20B43134303F00103009348
:101A700000230193DDE900231343C5F12008A5F1FC
:101A8000200602D10C370135DEE73A6852BB7A688E
:101A9000772A09D12068039201F0C2FD082898BF77
:101AA000164B039A98BF1A5C80212046FFF727FF48
:101AB00090B9D4E92E1209FA06F629FA08F809FABB
:101AC00005F346EA080621EA030A22EA060B5AEA67
:101AD0000B03C4E92EABD5D1012384F82C3905B012
:101AE000BDE8F08F94F82C39002BE2D0012380213F
:101AF0002046FFF71EFFDBE7D01B0100791801002D
:101B0000014B1868FFF790BF6814002010B590F8DB
:101B10009830044633B1D0F8CC308B4204BF002358
:101B200080F898302046FFF73BFFD8B994F8D010E2
:101B300099B101230C222046FFF7FBFE90B994F8DF
:101B4000C83084F8D000042B07D0201D05F007F919
:101B50000123C4F8CC0084F898302046BDE810403A
:101B6000FFF762BF10BDFFF7D1BFF8B500F1500419
:101B700005462046069EBDF81C7005F077FC50B95E
:101B80003A463146286D05F0FDF920B92046BDE8FA
:101B9000F84005F04EBCF8BD2DE9F04F042B87B09E
:101BA00004460F46904602D0052B16D0FEE711469C
:101BB00004A800F073FDDDE904654FF0070A05F0A5
:101BC000010B9EB9BBF1000F10D10D223946204602
:101BD000FFF791FE07B0BDE8F08F114604A800F0B2
:101BE00069FD4FF0080ADDE90465E8E704F18009C2
:101BF000484605F017FB0DF10A0203A9484605F017
:101C0000F1FA484605F015FB6D10002384F81439ED
:101C10006019BBF1000F01D063599E59B0470123F1
:101C200084F81439054618B1FFF7F0FC0246CDE7F9
:101C3000BDF80A300193039B009352464346394650
:101C40002046FFF792FF0028C4D02A46BEE708B519
:101C50000022FFF750FE08BD37B502238DF807308C
:101C6000B0F88820B0F886309A4204461AD120682D
:101C700002F050FD00234FF47F42A4F8162984F8A7
:101C8000123984F81839C4F81C39C4F82039C4F85A
:101C90002439C4F82839702280212046FFF72FFE0E
:101CA00088B1FEE70DF10701803005F0F4F9054633
:101CB00000B1FEE79DF807302068022BD7D002F074
:101CC00027FD024B1D60002003B030BD68140020CA
:101CD00010B50446006802F026FD0146206DBDE8FF
:101CE000104005F03EB910B50446006802F0B7FD9B
:101CF0000146206DBDE8104005F033B937B500232B
:101D0000054601A98030019305F047FA044688B9D9
:101D10009DF80410286802F0A4FD044650B9286814
:101D200002F001FD30B195F812391BB1286802F0BC
:101D30001FFD0446204603B030BD10B504460068C0
:101D400002F0FAFC002818BF0221206D08BF002114
:101D5000BDE8104005F005B913B5002304460DF1A8
:101D6000070180308DF8073005F095F950B99DF8DE
:101D700007301BB1022B07D8012100E00146206883
:101D800002F0E0FC02B010BD0720FBE710B50446EE
:101D900054F8500B02F068FD01462046BDE81040A3
:101DA00005F054BA13B504460DF10601803005F074
:101DB000A0F920B9BDF80610206802F057FD02B066
:101DC00010BD10B50446006802F053FD082201461C
:101DD000206DBDE8104005F0D5B813B508220446C3
:101DE00001A9803005F0F0F918B90199206802F0D6
:101DF00042FD02B010BD10B5044654F8500B02F07D
:101E00003DFD01462046BDE8104005F01FBA90F8A0
:101E10001219006D05F0A5B837B5002305460DF180
:101E2000070180308DF8073005F045F9044670B998
:101E3000286802F078FC30B19DF8073028684BB173
:101E400002F096FC04469DF8073085F812392046CA
:101E500003B030BD02F082FCF4E710B50446006820
:101E600003F0C8FD0146206DBDE8104005F079B8CB
:101E700010B50446006803F0BFFD0146206DBDE8C3
:101E8000104005F06EB8F8B505460E46002401274F
:101E900007FA04F33342E1B204D10134202CF7D124
:101EA000002004E0286D05F05CF80028F5D0F8BDAE
:101EB0000023F7B505460C460B6000F180070126AC
:101EC000B5F88620B5F888309A420FD00DF1070199
:101ED000384605F0E0F850B99DF807301F2B08D8B8
:101EE000226806FA03F313432360E9E7002003B0F6
:101EF000F0BD0720FBE7D0F8A010FFF7C4BF13B573
:101F0000002301A904460193FFF7D2FF10B9019BFA
:101F1000C4F8A03002B010BDB0F8A410503005F0E5
:101F200095B900F1A401803005F0E3B810B504467E
:101F3000006802F0F8FB50B194F9173901330CBF77
:101F400000210221206DBDE8104005F00AB80146CD
:101F5000F8E7000037B5002305460DF10701803092
:101F60008DF8073005F097F8044600BB9DF8073060
:101F7000EBB1022B20D1286802F0D5FBB8B195F95E
:101F8000173901331AD1D5F8A020CAB1531E134016
:101F900016D15208D9B203F101000BD185F81739D7
:101FA000B5F8A420074B286802F0EDFB0446204654
:101FB00003B030BD0346ECE70C24F8E70D24F6E748
:101FC0000724F4E77929000013B5044601A98030FD
:101FD00005F0E3F828B90122019904F1B80000F0F6
:101FE00001FF02B010BD13B5044601A9803005F011
:101FF000D4F828B90246019904F1B80000F0F2FEC5
:1020000002B010BDD0F89C10503005F07BB910B56F
:1020100000F150040421204605F074F928B9204647
:102020000321BDE8104005F06DB910BD032150300B
:1020300005F068B90021503005F064B910B500F121
:1020400050040521204605F05DF9F8B90C21204621
:1020500005F058F9D0B91821204605F053F9A8B970
:102060002221204605F04EF980B940F20121204698
:1020700005F048F950B94021204605F043F928B948
:1020800020464121BDE8104005F03CB910BD10B517
:10209000044602F041FB014604F15000BDE8104047
:1020A00005F06BB90121006D04F05BBF0021006DEC
:1020B00004F057BF0421006D04F053BF0C2070479B
:1020C00013B504466946006802F0DAFB0822694647
:1020D000206D04F057FF02B010BD0221503005F012
:1020E000E3B990F8C810006D04F03BBF73B5044627
:1020F0000E4680300DF1070104F0CDFFA0BB9DF826
:102100000730042B07D8012202FA03F111F01B0F4C
:1021100002D14B0703D4032384F8C83001E084F8CC
:10212000C820002384F8D0300C22012331462046F9
:10213000FFF7FFFB94F8C830042B054608D070B9B0
:10214000201D04F00CFEC4F8CC00012384F8983064
:1021500015B184F8D0600025284602B070BD074B49
:102160001B68C4F8CC30F0E7FFF750FA314602465E
:102170002046FFF7C4FB0546EEE700BF1C1E01002A
:102180000C2A10B51C4603D0712A06D0002010BDC1
:10219000FFF7ACFF20700120F9E700F04DFDF9E7F3
:1021A000F0B585B004460D460026114602A8174634
:1021B0008DF8076000F066FADDE9021303F0010212
:1021C00001B98AB15B1084F81469E0180AB1E358C8
:1021D0005958884701228DF8070084F8142988B1DE
:1021E000FFF714FA024608E00DF107033A462946C4
:1021F0002046FFF7C5FF60B90D2229462046FFF7AC
:102200007AFB04E03B4629462046FFF71DFB8DF88C
:1022100007009DF8070005B0F0BD73B50023044624
:102220000D46803001A91646019304F0B6FF014621
:1022300050B1FFF7EBF9294602462046FFF75BFB5A
:102240000146084602B070BDB31E032BF9D8DFE883
:1022500003F002090F0F019B002229462046FFF7D9
:10226000F3FAEDE7019A29462046FFF799FFE7E7E1
:102270003346019A29462046FFF78EFCE0E737B542
:1022800004460D46803001A904F087FF58B9019A31
:10229000052A14D8DFE802F003090E0E0E0E2946B7
:1022A0002046FFF7D4FC03B030BD29462046FFF797
:1022B000D3FCF8E729462046FFF7AFFFF3E70522F6
:1022C00029462046FFF717FBEDE773B5012300F120
:1022D0008005044680F81439002628468DF80760EA
:1022E00004F0CEFE042384F8C83084F898600DF121
:1022F0000701284604F0CFFE80B99DF807100B06B1
:102300000CD5D4F8203911F0300F03F10103C4F8D3
:10231000203908D006222046FFF7F1FA002384F87E
:10232000143902B070BD2046FFF7A9FF38B19DF8FF
:102330000710FFF76BF902462046FFF7DCFA94F826
:10234000D32894F8D2389A4202D02046FFF728FBCF
:102350009DF8073094F8D12803F00F0332B19A4268
:102360001EBFD4F824290132C4F824290F2B14BF2E
:102370000133012384F8D138D0E710B50446006852
:1023800001F0DAFAC1B2206DBDE8104004F0E9BDF9
:1023900010B50446006801F077FDC1B2206DBDE8BC
:1023A000104004F0DEBD000010B50446006802F0E5
:1023B00056FAB0B10A280CD84FF4FA61414301F53E
:1023C0005C2101F5346104F15000BDE8104004F0D7
:1023D0004CBF192807D8054941F2883303FB001187
:1023E000F1E70349EFE70021EDE700BFB0DB230091
:1023F000CC3F0D0013B504460DF10701006801F054
:1024000013FB30B99DF80710206D04F0AAFD02B04F
:1024100010BDFFF7FBF8014604F1500005F044F849
:10242000F5E713B5002304460DF1070180308DF860
:10243000073004F052FE20B99DF90710206801F022
:1024400007FB02B010BD13B504460DF1070100688B
:1024500001F0E0FA30B99DF80710206D04F081FD1D
:1024600002B010BDFFF7D2F8014604F1500005F0AC
:102470001BF8F5E713B5002304460DF10701803082
:102480008DF8073004F029FE20B99DF90710206867
:1024900001F0A0FD02B010BD13B504460DF1070117
:1024A000006801F0EDFA30B99DF80710206D04F0D6
:1024B00058FD02B010BDFFF7A9F8014604F1500025
:1024C00004F0F2FFF5E713B5002304460DF1070110
:1024D00080308DF8073004F000FE20B99DF9071018
:1024E000206801F0D7FA02B010BD37B500F18005C1
:1024F00004460DF10601284604F0CDFD60B90DF14A
:102500000701284604F0E9FD30B99DF907209DF840
:102510000610206801F070FD03B030BD13B504460D
:102520000DF1060154F8500B01F07EFD30B9BDF8F5
:102530000610204604F08AFE02B010BDFFF766F8D0
:102540000146204604F0B0FFF6E713B504460DF14E
:102550000601803004F0CDFD20B9BDF806102068DA
:1025600001F06EFD02B010BDFEE7FEE710B50446B7
:1025700002F088F9FFF75EF90146206DBDE81040D2
:1025800004F0EFBCF7B5002300220546CDE9002397
:1025900000F007FF6946044605F1800004F0D5FD10
:1025A00070B9DDE9006723460024A74208BF9E42B8
:1025B00008D3F21A67EB0403C5F83029C5F834399B
:1025C00003B0F0BD0720FBE700F51363D3E9002358
:1025D000503004F065BE10B50446006803F002FAFE
:1025E00001462046BDE81040FFF74DBC10B504463B
:1025F000006803F0FBF901462046BDE81040FFF7F4
:1026000042BC00001346074A10B40446106828B1C3
:102610000A4621465DF8044BFFF7CEB80D205DF861
:10262000044B704768140020F0B5013A04460026B8
:102630000C20B2420AD995196D0800FB05F7CF5955
:102640009F4201D26E1CF4E72A46F2E770430A1853
:1026500009588B4205BF131DD3E900010023C4E9CB
:10266000000118BFC4E900332046F0BD10B50B4689
:1026700004462A220249FFF7D7FF204610BD00BFBB
:102680008818010010B50B46044616220249FFF7D0
:10269000CBFF204610BD00BF801A010010B50B46CD
:1026A000044603220249FFF7BFFF204610BD00BFCA
:1026B000881B010010B50B46044603220249FFF7B0
:1026C000B3FF204610BD00BFAC1B010009215030F4
:1026D00004F018BE0421503004F014BEF8B50646CC
:1026E000174600F150050C4649B142B98A8809687D
:1026F000284604F032FE002875D00120F8BD0021E4
:10270000284604F0A3FD0028F7D1002C6BD1214608
:10271000C9B2306D04F025FC0028EED18021306D67
:1027200004F01FFC0028E8D1002C5FD0E37D13F0FB
:10273000010F0CBF002110219B0701D541F02001A2
:10274000284604F083FD0028D7D1284604F02DFE4A
:1027500001460028D1D104B1A179306D04F001FC0B
:1027600001460028C9D104B1A17D306D04F0F9FB08
:102770000028C2D1002C3BD0D4E90223284604F023
:102780008FFD0028B9D1284604F02EFE0028B4D1D0
:10279000284604F00AFE0028AFD13946284604F046
:1027A000B1FD0028A9D1284604F01EFE0028A4D1BE
:1027B000284604F0FAFD014600289ED104B1217D8F
:1027C000306D04F0CEFB002897D1A4B121692846D2
:1027D00004F04BFD002890D1284604F005FE00309F
:1027E00018BF01208AE794F9151091E72146A7E761
:1027F00000220023C2E72146E9E7F8B500F15004C2
:1028000005460E461746712306228021204604F015
:102810002DFE50B93A4631462846FFF75FFF20B9F2
:102820002046BDE8F84004F004BEF8BD014B18682E
:10283000FFF7E3BF681400202DE9F3470E4690F838
:102840001619044690469A4600293AD041F0800174
:1028500072B3136893F80090C9F30019F77E002350
:1028600004F1500584F816390622284607F00107BE
:1028700004F0FCFD28BB5046FEF7C8FE0146284682
:1028800004F040FDE8B94946206D04F06AFBC0B988
:102890003946206D04F065FB98B9BAF1000F09D0F4
:1028A00033681B781B070FD4284604F0C2FD08E0EC
:1028B0009146D3E7524641462046FFF70FFF0028D6
:1028C000EED002B0BDE8F087002FEDD00DF103018E
:1028D000304602F071FB0028F3D101A9304602F026
:1028E00043FB0028EDD19DF80310206D04F039FB67
:1028F0000028E6D10199284604F0B7FC0028D3D07F
:10290000DFE7000001480068FFF796BF6814002069
:10291000F8B5FF23044690F9177980F81739054672
:1029200054F8500B0E4601F023FF39230622802174
:10293000204604F09BFDF0B9F9B2286D04F011FBBC
:10294000C8B9F1B2286D04F00CFBA0B9204604F020
:1029500070FD80B9802130230622204604F086FDD8
:10296000014640B9286D04F0FCFA20B92046BDE8C4
:10297000F84004F05EBDF8BD014B1868FFF7C8BF12
:102980006814002010B5044654F8500B01F0F8FE0E
:1029900001462046BDE8104004F0B4BC90F8181978
:1029A000006D04F0DEBA10B5044654F8500B01F087
:1029B00054FF02460B462046BDE8104004F070BCB0
:1029C00010B500F618110446803004F074FB30B9DD
:1029D00094F818192068BDE8104001F0D7BE10BD6A
:1029E00073B50446006801F015FF0546B8B904F157
:1029F0008006B4F88830B4F886209B1A9BB2012B6D
:102A00000DD90DF10601304604F073FB30B9BDF865
:102A10000610206801F0C6FE0028EAD005462846C8
:102A200002B070BD73B50446006801F0FFFE0546B4
:102A3000B0B904F18006B4F88830B4F886209B1A47
:102A40009BB2072B0CD9082201A9304604F0BCFB2D
:102A500028B90199206801F0AFFE0028EBD00546A7
:102A6000284602B070BD13B504460DF10601803052
:102A700004F03FFB20B9BDF80610206801F0AEFE5F
:102A800002B010BD13B50822044601A9803004F03D
:102A90009BFB18B90199206801F0AAFE02B010BD95
:102AA00013B504460DF10601803004F022FB20B975
:102AB000BDF80610206801F075FE02B010BD13B518
:102AC00000230446082201A98030019304F07CFB16
:102AD00018B90199206801F06FFE02B010BD000026
:102AE00013B5002304460DF1070180308DF807303F
:102AF00004F0E1FA38B99DF8072023682AB90146A5
:102B0000184601F00DFE02B010BD0149F8E700BF04
:102B10002D28000013B504460DF10601803004F0A5
:102B2000E8FA20B9BDF80610206801F001FE02B0F5
:102B300010BDF0B500F1800585B00C460DF10A021C
:102B400003A9284604F059FB064600286FD1BDF8BA
:102B50000A207F2A6ED82646A28056F8060B0399D3
:102B60000CF07AFC3146284604F095FA0646002817
:102B70005DD1A379A376E37E23F0170343F004032A
:102B80002146E37640F60473C4E9040021F8183FB7
:102B9000284604F080FA002849D104F1190128469A
:102BA00004F079FA002842D10DF10601284604F01C
:102BB00082FA00283BD1E37E9DF8062062F382036F
:102BC000E37602A9284604F076FA80BBE37E9DF8FE
:102BD000082062F30003E3760DF10701284604F0B4
:102BE0006AFA20BBE37E9DF8072062F34103E37697
:102BF0000DF10901284604F05EFAC0B9E37E9DF8A4
:102C0000092062F30413E37604F11001284604F06E
:102C100084FA60B904F11401284604F07EFA0746EC
:102C200028B904F11A01284604F035FA3E46304628
:102C300005B0F0BD0626FAE738B5044600680D4633
:102C400001F071FDA0B1206801F095FD0146D0B101
:102C50002046FFF76EFF034658B90C49206801F083
:102C60008CFD034628B905F00F0584F8165938BDC8
:102C70000D231846FEF7CAFC294602462046BDE849
:102C80003840FEF73CBE0323F3E700BF05290000F0
:102C900030B500F1800487B0054602A9204604F053
:102CA000FAF920B99DF80830082B02D0072007B0A8
:102CB00030BD0DF10901204604F0EDF90028F6D1F0
:102CC0000DF10A0203A9204604F097FA0028EED17C
:102CD000BDF80A30102BE9D10DF10A0204A92046F3
:102CE00004F08BFA0028E2D1BDF80A30102BDDD1B8
:102CF0000DF10A0205A9204604F07FFA0028D6D17A
:102D0000BDF80A30102BD1D1059B0193049B009391
:102D10009DF80920039B9DF80810286801F092FD9A
:102D2000C5E737B500F180050446002301A9284610
:102D30008DF8033004F0F1F9A0B9B4F88620B4F8A6
:102D400088309A4207D19DF80330206801995BB919
:102D500001F07BFD06E00DF10301284604F0ABF91C
:102D60000028F0D003B030BD01F073FDFAE71B205E
:102D70007047000030B51A4C002325688D4228D1D9
:102D80006568954225D1D0E90225C3F1200405FAF2
:102D900004F4A3F12001DA4025FA01F122430A43A9
:102DA000012102EA0104002554EA0502C3F12004CE
:102DB000A3F120020CD101FA02F221FA04F4224319
:102DC00001FA03F3D0E900140B432243C0E90032B7
:102DD00030BD0133DBB21B2B04F10C04CDD1F7E77E
:102DE000D01B01002DE9F04F0023214C93461F46D4
:102DF000012694F814C05D1CBCF1000F25D0E268D8
:102E00008A4222D11F3BC5F1200726FA07F706FAAE
:102E100003F33B4306FA05FA6FEA0A086FEA030E6A
:102E2000D0E90279BBF1000F18D047EA0A0749EA56
:102E30000303C0E90273D0E9003703EA080307EA95
:102E40000E07C0E9003731B967461A2D2B4604F149
:102E50000C04CED14FB10020BDE8F08F07EA08077F
:102E600009EA0E03C0E90273EDE70720F4E700BFAB
:102E7000D01B010030B5104B00220132D2B21B2A08
:102E800003F10C0301D1002015E01C7A002CF4D0D2
:102E90001C688C42F1D1D0E90235C2F12004A2F1C4
:102EA000200123FA02F005FA04F4204325FA01F187
:102EB000084300F0010030BDD01B010000F14020AC
:102EC00000F50030002382B0036003680193019B8A
:102ED00002B0704708B5084B08490201134458680E
:102EE000C1F84803D868C1F808031889FFF7E6FF5E
:102EF000034B0021995408BD141D010000400240FD
:102F000080140020224B37B519460120D3E84F2FFB
:102F1000D2B28DF807209DF8072062B1BFF32F8F42
:102F20001C4B1A681C4B12B91A68D2072DD51868A9
:102F30000230400827E0C3E8420F002AE6D1174BD1
:102F40000222C3F80823BFF35F8F03F58273124A8E
:102F50001B684BB1136801331360BFF35F8F4FF4ED
:102F60008270FFF7ABFF012310680C4C0225013083
:102F70004008C4F80453BFF35F8F00240C7013B1F2
:102F800013680133136003B030BD1868D1E700BF88
:102F90006D140020044102407014002000400240E3
:102FA0002DE9F04180460E46FFF7ACFF0746BFF320
:102FB0005F8F084DD5F80445BFF35F8FFFF7A2FF81
:102FC000C8F80000874218BFD5F804453460BDE852
:102FD000F08100BF004002402DE9F84F494EDFF874
:102FE00034C11701DDE90A3406EB070E9842DEF81A
:102FF0000C50CCF80853DEF80450CCF844531D466E
:1030000071D9A0EB030CBCF1000F6CDA003344F172
:10301000FF3411EB000A4FF000034FF0000545F1BB
:10302000000BA44613EB0A084CEB0B0932B94FF422
:103030007A7303FB09F1A8FB03898944324B4FEAF9
:10304000583444EAC944A4FB03454FEA593103FB11
:103050000155200F2C0F40EA051043F60953650275
:1030600045EAD0554FEA402CA0FB0301B8EB000E17
:1030700003FB041169EB0104244840F2314101FBD8
:103080000EF100FB0414AEFB0089A1444FF0FF34A5
:1030900018EB040447F6FF7049EB0000C40B14EB77
:1030A0000C044FF0000145EB010124F07F4840F291
:1030B000FF10A4FB034503FB015520184FF000014E
:1030C00045EB0101C2B1400A40EAC150490A104B28
:1030D000104A3B44C3E90201F35903F5A87342F8CF
:1030E0002380BDE8F88FA84293D22D1A002D90DAE4
:1030F000003344F101048CE74FF4FA2200230BF073
:10310000A1FFE4E7141D0100D07B63087B2DE8BD1F
:10311000801400200040024013B5044601A968460F
:10312000FFF73EFF019843F6095140F2FF120023DA
:10313000E1FB0023500A40EAC350590A009A054BAC
:10314000E3FB020124B94FF47A7200230BF07AFFFB
:1031500002B010BD0080841EF8B5194C050163193A
:10316000064618890F46FFF7A9FE3046FFF7D4FF41
:103170003FB9144B2B44D3E90223994208BF904234
:103180001CD32C44104B6268C3F84823022EE2681B
:10319000C3F808230AD0032E0CD00A4A0123535542
:1031A0000A4A1370BDE8F84000F0ADBFBDE8F84032
:1031B00005F06EBABDE8F84004F082BDF8BD00BF6E
:1031C000141D010080140020004002406C140020F7
:1031D0007FB505460E4602A803A91446FFF7E0FE98
:1031E000039843F6095140F2FF120023E1FB00234C
:1031F000500A40EAC350590A029A244BE3FB0201E9
:1032000024B94FF47A7200230BF01CFFCDE90001C2
:10321000224631462846FFF7DFFE1D4B039AD3F8BE
:1032200004359A4203D003A902A8FFF7B9FE039B15
:1032300043F60950991C40F2FF120023E0FB0123E2
:10324000500A40EAC350590A029A104BE3FB0201AC
:1032500024B94FF47A7200230BF0F4FE0D4A2501D5
:103260002A44D2E90223994208BF904206D30121A1
:103270002046FFF771FF40BF04B070BD064B2B44E2
:10328000DA68034BC3F80423F6E700BF0080841E0E
:103290000040024080140020141D010038B5402277
:1032A000002129480CF0DAF9284B00201860284B3F
:1032B0001870284B00240025C3E9004508F040F9A8
:1032C00008F07CF90028FBD0234BC02283F824238C
:1032D0001022C3F884215A60204A0023C2F808351E
:1032E0004FF48270FFF7EAFD0223C2F844334FF433
:1032F000A070C2F80433FFF7E1FD4FF48033C2F849
:1033000048334FF4A270C2F80833FFF7D7FD4FF4EB
:103310000033C2F848334FF4A470C2F80833FFF703
:10332000CDFD4FF48023C2F848334FF4A670C2F8A5
:103330000833FFF7C3FD4FF40023C2F84833C2F847
:1033400008330123136038BD80140020701400205E
:103350006D1400207814002000E100E000400240DD
:103360002DE9F04100250B4E0746A8460A4C86F889
:103370000080237C1BB13846257401F01FFC2378A4
:103380001BB13846257001F0E3FB3378002BEDD1FB
:10339000BDE8F0816C140020801400200120FFF7AC
:1033A000BBBE08B5FFF7FAFF4FF47A7200230BF0AB
:1033B00049FE08BD084611460022FFF709BF00205C
:1033C000FFF788BD08B5FFF7E9FF08BD08461146BD
:1033D0000122FFF7FDBE0120FFF77CBD704770475B
:1033E000044B4FF48022C3F80823BFF34F8FBFF381
:1033F0006F8F704700400240024B4FF48022C3F8A9
:103400000423704700400240FFF7DCBF1F207047D5
:103410000222FFF7DDBE0220FFF75CBD2DE9FF4869
:10342000164F174E40F2FF14002502A903A8FFF71C
:10343000B7FD029A43F6095320462946E3FB0201F1
:1034400002460B46500A40EAC350590A039BE7FB69
:1034500003018C4683460322CDE900BC3E21584639
:10346000FFF7BAFD4FF40023C6F80433D6F804354D
:10347000029A9A42D9D104B0BDE8F0880080841E37
:103480000040024037B5044603200D46FFF744FED6
:103490000322CDE9000129462046FFF79DFD034B9D
:1034A0004FF40022C3F8042303B030BD00400240B3
:1034B0000320FFF70FBD000008B5224B01221A6060
:1034C0004FF4A070FFF7FAFC1F4A4FF48033C2F8A4
:1034D00048334FF4A270C2F80833FFF7EFFC4FF403
:1034E0000033C2F848334FF4A470C2F80833FFF732
:1034F000E5FC4FF48023C2F848334FF4A670C2F8BD
:103500000833FFF7DBFC4FF40023C2F84833C2F85E
:1035100008330223C2F808334FF48270C2F84833EC
:10352000FFF7CCFCFFF7C4FF084B1022C3F8842040
:10353000C3F88421002283F82423BDE8084008F062
:1035400029B800BF044002400040024000E100E012
:10355000004870474C410240014B986B704700BFD8
:1035600080140020114B1B6870B52BB1104B022248
:10357000C3F80823FFF7C6FC0E4D0D4E0024D6F805
:103580000423EB681A420AD02B8903F1402303F588
:1035900000331B681BB10021E0B2FFF7DDFD0134F1
:1035A000042C05F11005EAD170BD00BF04410240B2
:1035B00000400240141D0100FFF7F0BE7047704745
:1035C0004FF08043044AD3F8001411604FF0FF32EB
:1035D000C3F80024704700BFC014002070470000EB
:1035E00008B500F044FF0A4B187018B1094B0422CB
:1035F0001A6008BDBFF34F8F0749084BCA6802F431
:10360000E0621343CB60BFF34F8F00BFFDE700BF05
:103610003C4B0020C014002000ED00E00400FA053F
:103620000B4B1B68D9070BD49A070BD459070BD443
:103630001A070BD413F4F81F14BF0620002070479C
:103640000120704708207047022070470320704710
:10365000C014002070470000012303FA00F0084A5C
:1036600082B0C04352E8003F0193019B03400193A5
:10367000019B42E800310029F4D102B0704700BF3D
:1036800038150020074A82B052E8003F0193019BA1
:1036900023F001030193019B42E800310029F3D19B
:1036A00002B07047381500200123094A82B003FA9E
:1036B00000F052E8003F0193019B03430193019BFB
:1036C00042E800310029F4D102B000F01CBD00BF77
:1036D00038150020F4230B70CE234B7036238B70EB
:1036E0004FF0805382B01A6E5B6EC1F80330CA711E
:1036F00002B0704707B501A8ADF8041004F06AFBEA
:1037000003B05DF804FB000010B4074AC81D03466F
:10371000884213F8014902F8014B03D15DF8044BCC
:1037200004F05ABB1846F2E70815002007B501A8B7
:10373000ADF8041004F052FB03B05DF804FB000088
:1037400008B5134B01221A70124B7F221A70124BCC
:10375000124A1A60124ADA60124A00231370124A9F
:10376000184659010133102B8850FAD10F4A002313
:103770007F210133102B02F8011BFAD120220021F6
:103780000B480BF06BFFBDE8084004F034BB00BFF2
:10379000011500200015002058170020891700206F
:1037A000781700204C150020501500201815002017
:1037B000C814002008B504F063FB04F041FB024B81
:1037C00000221A6008BD00BF3815002008B50E4B56
:1037D0001B7893B904F048FB072812D8012303FA99
:1037E00000F010F0D00F0AD110F0280F09D110F01E
:1037F000040F0CBF0220184608BD0020FCE7032080
:10380000FAE70220F8E700BF01150020024B187804
:1038100080F00100704700BF01150020034B1A78AB
:1038200012B10020187070470D207047011500205C
:1038300010B5084C22784AB9FFF7C8FF012803D019
:10384000054B1B68DB0703D501232370002010BD47
:103850000D20FCE7011500203815002008B504F004
:1038600012FB28B900F0DFFDFFF70CFF002008BDB8
:10387000FFF708FF0020FFF717FFF7E70B68F7B522
:103880008A8803F8012C07460C4604F0EDFA02285A
:1038900001D100F0C7FD204600F0A4FC90B1204605
:1038A00000F0A5FC70B1E37E9B070BD41E4B2046B5
:1038B000197800F0BAFC1D4B196820464A1C1A60A2
:1038C00000F0B5FC2669A079D6B125680090334692
:1038D000681E6269012104F0F0FA0028064612BF52
:1038E00000250D250126FFF7CDFE2146384602F0C2
:1038F0005EF816B90220FFF7D7FE284603B0F0BDE8
:1039000004F04EFAE57E206815F0040505D0013874
:10391000354604F011FB0126E5E72946013804F09D
:10392000C0FA0646DFE700BF10150020141500207E
:10393000004870475817002008B5064B4FF4206028
:1039400043F00103984704F0C6FABDE8084004F0CC
:10395000C4BA00BF601D0100FB20704704F0CEBA5E
:10396000084604F0CDBA084604F0CCBA07B5ADF865
:10397000041001A8002104F0C7FA00280CBF03209E
:10398000002003B05DF804FB08B50846012104F0EF
:10399000BBFA00280CBF0320002008BD07B5ADF816
:1039A000041001A8002104F0B8FA00280CBF0A2076
:1039B000002003B05DF804FB08B50846012104F0BF
:1039C000ACFA00280CBF0A20002008BD002004F03B
:1039D000A7BA012004F0A4BA4FF47A7310B55A4381
:1039E0000A4C0B4B226008461970FFF74BFE04F09F
:1039F000D7F9206804F069FA20B10520FFF72CFE02
:103A0000002010BD0520FFF74FFEF9E70415002048
:103A10000315002010B50C4621B104F0D4F9207034
:103A2000002010BD0720FCE713B50C4661B101A8CA
:103A300004F080FA054A9DF8053012785E3B9B1A27
:103A40002370002002B010BD0720FBE711150020F5
:103A500013B50A4B1878084440B210F15E0F0BDB27
:103A60000024019404F0C0F98DF8050001A804F0C9
:103A70005AFA204602B010BD0720FBE711150020BE
:103A800021B1034B1B780B70002070470720704753
:103A900011150020F7B50B4C064601A80F4694F906
:103AA000005004F047FA9DF80530217827705E3BFE
:103AB000591A49B23046FFF7CBFF00B1257003B069
:103AC000F0BD00BF11150020F8B50026404D04469A
:103AD00037462B684BB120460022294601F060FF93
:103AE00028682F60013804F0F4F90136102E05F132
:103AF0002005EED1374D2B689F0714D5364E012097
:103B0000FFF7AAFD32683549002A20464FF000032E
:103B100018BF324601F052FF306820B1013804F07E
:103B2000D8F9002333602B685E0708D50220FFF721
:103B300093FD0F2300222949204601F03FFF2B6807
:103B4000180708D50320FFF787FD0E23002223491D
:103B5000204601F033FF2B68D90608D50420FFF773
:103B60007BFD1F4B00211A78204601F019FF2B68BE
:103B70005A0608D50620FFF76FFD1A4B204693F929
:103B8000001001F027FF2C6814F0010408D004F0A5
:103B90007AF90446A0B900F046FC2046FFF75CFD28
:103BA0002B689B0611D5104B187804F0F9F80F4BD1
:103BB000186804F08AF928B9BDE8F84000F0A3BA03
:103BC0000124EDE70520FFF747FD002CF4D1F8BDF7
:103BD0005015002038150020C81400205817002068
:103BE0004C150020021500200315002004150020AC
:103BF0002DE9F84FDFF8DCB01F46054689469246AE
:103C00000023D8465C0154F80B10002951D10BEB6E
:103C10000406202230460BF021FD6B1C4BF80430CB
:103C20002B78B38086F8159086F816A004F0C7F8B4
:103C3000B0716B78DFF8A09013F0200340D14444BA
:103C400004F1100898F8072063F3000288F80720B1
:103C5000FFF7B8FB29788246384604F0C8F80746D3
:103C6000FFF79CFBAAEB070AB0EB0A0261F1000325
:103C7000C4E90223002389F800306B78124D13F059
:103C8000200F10D0304600F0A3FA60B198F807304A
:103C90002A7862F3410388F807300C4B1B682361D4
:103CA0000B4B1B78237500232B70BDE8F84F00F0F9
:103CB0002ABA0133102BA5D1002301351D60FFDE88
:103CC00099F80030BBE700BFEE140020E814002094
:103CD000EC14002050150020ED140020431E092B89
:103CE00009D8DFE803F00516191C1C1C1C051C1C58
:103CF0000D4B12221A700D4A002313700C4A08282B
:103D0000137001D005280DD1074A00201370FFF76A
:103D1000CBBC054B1122EDE7034B1622EAE7024B21
:103D20000122E7E70420F2E74C150020ED14002003
:103D3000EE14002070B54278224B234EC2F30011DE
:103D400019700021130788B00446317034D51A2247
:103D50000DF106000BF082FC631C0093684623788B
:103D6000ADF8043000F054FA0446684600F03FFA1B
:103D700010B30CB3154B1B789C421FD05A1E9442B3
:103D80001ED001339C4217D1114B124D124A2968A3
:103D90001160124A02931470214601226846327063
:103DA00000F043FA296868464B1C2B6000F03FFA8C
:103DB0000B49684600F00AFA08B070BD094BE4E709
:103DC000094BE2E7ED140020EE140020101500204E
:103DD0002815002014150020E8140020EC14002001
:103DE00008150020F01400203C1500202DE9F047B4
:103DF000DDF820A0144C914698460D4629B9216063
:103E00000120BDE8F047FFF74FBCFFF7DBFA2E4675
:103E1000074616F8011B504603F0E9FF8246FFF7FC
:103E2000BDFAA7EB0A07C21B61F10003C4E9022334
:103E300026602B78A38084F8159084F8168003F010
:103E4000BEFFA071DCE700BFC814002007290DD811
:103E5000012303FA01F111F0D20F04D111F02C0F5C
:103E600004D0032000E00220FFF71EBC70470000D2
:103E700008B503F0B5FF034B1870BDE808400620F5
:103E8000FFF712BC021500206FF0630070470000BE
:103E900010B50A4C204600F0A5F970B1204600F09C
:103EA000A6F950B1E37EDB0607D4054BA36020469C
:103EB0000449BDE8104000F089B910BD5817002032
:103EC000F0140020081500207047704700F0DCBC9B
:103ED000FFF772BBF8B5002014461F46DDE9066502
:103EE00007F0F2FA0A4B1C7097E80F00094C84E8BF
:103EF0000F0096E80F00084C84E80F0095E80F00CB
:103F0000064C84E80F000020BDE8F84007F0DEBA58
:103F1000101500203C150020F0140020281500206A
:103F200010B500200C4607F0CFFA034B00201C60B0
:103F3000BDE8104007F0CABA1415002010B50020E3
:103F40000C4607F0C1FA054B1A68A24238BF1C6044
:103F50000020BDE8104007F0B9BA00BF14150020DA
:103F6000A0F10B030F2B9DBF024B1B1813F90B0C79
:103F70007F2070471815002008B5FFF7F1FF074BA9
:103F800093F900307F2B04D09842A8BF184640B266
:103F900008BD7F2808BF0020FAE700BF00150020F9
:103FA00010B508460C4603F0FBFE03F05DFF022847
:103FB00001D100F037FA2046FFF7DEFF03F001FFE2
:103FC00003F069FFFFF75EFB00280CBF0D20002007
:103FD00010BD000010B50C4603F0F1FE7F2C07D099
:103FE000044B1C70FFF7C8FF03F0EBFE002010BD70
:103FF0000720FCE700150020A1F10B030F2B10B5E3
:104000000C460DD8074B0B4403F80B2C03F0D7FEDE
:10401000A04203D1FFF7B0FF03F0D3FE002000E081
:10402000072010BD1815002021B1034B1B880B8001
:10403000002070470720704750170020704700008D
:1040400008B5034B08461980FFF7F8FF002008BDAC
:104050005017002010B50C4C00F0E3F900F05EF8AA
:10406000FFF7A8FBFFF7BAFA22780AB9FFF7A7FA19
:10407000207800F0F6F900F077F9FFF71DFABDE8B7
:10408000104000F0D3B900BF3C4B002010B5124CDB
:1040900023780BB1FFF7DEFF104B0122C3F8402558
:1040A00007F036FA00F0C0F9FFF7F8F800F008F969
:1040B00023780BB9FFF782FA207800F0CDF9FFF7EB
:1040C0007FFAFFF73DFB00F01FF800F0A9F9FFF7BA
:1040D00075FA0023237010BD3C4B002000E0014026
:1040E000014B1878704700BF3C4B002010B50446C8
:1040F000FFF7EAFC00F0B9F900F016F82046BDE839
:104100001040FFF72DB97047034B00221A60A3F24D
:10411000045301221A60704704C50040014B01227C
:104120005A60704700C000401F4B2DE9F7431F4CF9
:10413000D3F8002125688AB10022C3F80021D3F802
:1041400000210192019AD3F80825D3F80835920589
:1041500044BF6FEA83536FEA93532360FFF71EF95E
:10416000134B1A680FF23809D9E90089861A5A6880
:1041700061EB0207B94508BFB0453FBF0A4A0126B7
:104180001660C3E900012368AB4204D003B0BDE868
:10419000F04303F01DBE03B0BDE8F083AFF3008031
:1041A00080C3C9010000000000C0004010180020BA
:1041B0000818002070477047034B18680028B8BFE4
:1041C000033040F3870070471018002000F0A9BFAB
:1041D00008B500F0E7FD00F44050A0F50053584248
:1041E000584108BD03681878C0F3C000704707B590
:1041F0000DF1070100F0A8FE40B99DF80700A0F1FD
:1042000008035842584103B05DF804FB0020FAE768
:1042100007B500230DF107018DF8073000F0CCFE43
:104220009DF8070003B05DF804FB00F0DBBE00F072
:10423000ABBE0000064B00221A6082B01B680193DF
:10424000019B044B0122C3F804231A6002B070479B
:1042500000D1004000D00040144B1A6813B51AB3C7
:10426000134AD2F80813C9071ED5002119601B682C
:104270000193019BD2F808450E4B0F4A196810684C
:10428000091A7F2906D81968481C186001F07F01B7
:104290000A4844541B6812689B1A7F2B81BF044A4A
:1042A0000123C2F80833536002B010BD00D10040B2
:1042B00000D000409C1800209818002014180020FE
:1042C00070B580220021234D234C24480BF0C6F901
:1042D000234900232B602360C02381F80D334FF462
:1042E0000053C1F880310B601E49D1F8040540F03D
:1042F0000100C1F80405D1F8000220F00100C1F866
:104300000002FFF797FF2B46224611681868091A2A
:104310000329FAD911681868091A032917D90F4D0A
:1043200004240020166819688E421DBF19684E1CAF
:1043300001F07F0100211CBF695C1E600002013C8E
:1043400040EA0100EED1BDE870400BF0D7B9002083
:10435000F9E700BF981800209C18002014180020CE
:1043600000E100E000D00040074A0123C2F8083312
:104370005360064B4FF40052C3F88020C3F88021ED
:10438000002283F80D23704700D0004000E100E0D8
:104390002DE9F0471E4E01233370002836D0002946
:1043A00034D0DFF874801B4F0025C146D8F8004098
:1043B0003B68E41AE4B24B1B9C42C8BFDCB2F4B1C8
:1043C000DFF858E000EB050C0022D9F800A03B68AC
:1043D0009A451EBF3B6803F1010A03F07F0302F117
:1043E00001021ABF1EF80330C7F800A00023944250
:1043F0000CF8013BE9D8FFF71DFF2C44A5B28D4214
:10440000D4D3002000233370BDE8F0870720F9E7FC
:1044100094180020981800209C18002014180020E0
:10442000704770477047704700F002B800F00EB850
:1044300008B50121002007F019F80028A2BF024B9F
:1044400001221A7008BD00BFA0180020014B0022F5
:104450001A707047A018002008B900F0B5B800F035
:10446000E5B808B900F0CAB8704700F0E7B8012015
:10447000704700000838062814D8DFE800F0060D61
:1044800010131313040008F0FBBC074B00221A841E
:10449000064B01221A757047044B0022FAE7034BC2
:1044A00001225A75704700BFA41800202C1B002061
:1044B000FFF729BE07B5012101AA0A480AF092F9BF
:1044C00068B9019840B1FEF76CFF074B1B69C01A31
:1044D0000A2894BF0020012003B05DF804FB0020EF
:1044E000FAE700BF681D01002C1B0020012910B550
:1044F0000DD079B1022909D14FF4007209490A4857
:104500000AF03EF9FEF74DFF084B186110BD074B4E
:10451000D975FBE7054C012323760AF02CF9A0603E
:10452000F4E700BF2C190020681D01002C1B00209F
:1045300010B5134C237B0BB1237DDBB2627B03F000
:1045400001039A4206D063737BB107F047FE08B9B6
:1045500008F094FC637D8BB10023637507F03EFE89
:1045600060B1BDE8104008F08DBC07F041FE10B10D
:1045700008F098FCEEE708F083FCEBE710BD00BF05
:104580002C1B002038B50E4C236825466BB1FFF775
:1045900091FF50B1A28821680A480AF0CBF818B9F7
:1045A0000123A3752060A08038BDEB7D002BFBD0DC
:1045B0000023EB75AB75BDE83840FCF7C0BE00BF0B
:1045C0002C1B0020681D010008B51C220021084892
:1045D0000BF044F809F0A8FA064808F085FB09F04A
:1045E000D7FA054808F068FCBDE8084008F02EBC82
:1045F0002C1B00208C1D0100681D010008B507F070
:10460000F7FD58B108F04EFC08F008FF0028FBD178
:1046100008F0E4FCBDE8084008F0E0BB07F0DEFD70
:104620000028F5D008F02CFCF2E70000024B002235
:104630009A751A609A8070472C1B002038B508F0D4
:10464000EDFE05460028FAD10B4CFFF771FF237EE3
:1046500073B1A16821B189B20848FCF76EFEA5606C
:104660004FF40072054906480AF08AF800B920762E
:10467000BDE83840FFF786BF2C1B00202C19002016
:10468000681D0100024B01221A730020704700BF11
:104690002C1B002010B5094CA37D0BB1E37D1BB191
:1046A000FFF770FF002010BD08F0B8FE0028FBD116
:1046B000FFF73EFFFFF766FFEEE700BF2C1B002071
:1046C00070B50E4CA37D05460E460BB1FFF7E2FF19
:1046D000236873B9FFF7EEFE10B92560A68070BDA0
:1046E0003246294606480AF025F8012318B9A37571
:1046F000F5E70520F3E71846F1E700BF2C1B002083
:10470000681D010000F0E0B80120704700F0F9B822
:1047100000F0EAB800F0EAB800487047981D0100C0
:10472000143000F07ABA8069003018BF0120704759
:10473000143000F09EBA00000148FFF70FB900BF27
:10474000481B002008B5836923B10348FFF708F927
:10475000002008BD0D20FCE7481B0020836913B131
:104760000248FFF77BB80D20704700BF481B0020B0
:10477000143000F088BA806B7047143000F09ABA99
:10478000243000F0C3BD143000F0AEBA08B5836920
:1047900023B10348FFF7E7F8002008BD0D20FCE730
:1047A000481B0020836913B10248FFF7DFB80D20D2
:1047B000704700BF481B002007B5836953B16846A6
:1047C000012200F012FD69460348FFF7DDF803B04F
:1047D0005DF804FB0D20FAE7481B0020836913B144
:1047E0000248FFF7DBB80D20704700BF481B0020D0
:1047F00007B5836953B16846012200F0F6FC6946AB
:104800000348FFF7D9F803B05DF804FB0D20FAE781
:10481000481B002008B5836923B10348FFF7D6F889
:10482000002008BD0D20FCE7481B002008B5836967
:1048300023B10348FFF7CDF8002008BD0D20FCE7A9
:10484000481B0020143000F06BBA0022143000F036
:104850009FBA0122143000F09BBAFEF7ADBE007D76
:104860007047143000F0F4B9C08A7047143000F07B
:10487000E2B92A307047143000F0F1B9008D70476A
:10488000FEF728BF0120704700F090B810B504462D
:10489000FFF73AFF20B1201DBDE8104000F0B8B886
:1048A00010BD38B500250446C0E90155C56010307B
:1048B00000F04EF8214604F1140000F09BF984F852
:1048C0008C50204638BD000010B5064C94F88C3052
:1048D0002BB92046FFF7E5FF012384F88C3001480F
:1048E00010BD00BF481B0020FEF77ABE10B504467D
:1048F000113000F0F1FF04F11400BDE8104000F0A9
:104900006DB910B590F88C3004465BB1002380F887
:104910008C30243000F034FD04F11000BDE810406C
:1049200000F002B810BD0000034A138803B9FEE787
:10493000013B1380704700BFD81B002031B16FF0DE
:104940000043994208BF0121016070470121FBE744
:1049500037B50D4C23884FF6FF729342054600D1C0
:10496000FEE753B904210DEB0100FFF711FD00B183
:10497000FEE701990548FFF7E1FF23882846013348
:10498000238003B030BD00BFD81B0020DC1B0020FB
:10499000026848F24E33A2FB032313EB520244BFDA
:1049A00022F000420132026010467047034B1B8820
:1049B00003B9FEE70248FFF7EBBF00BFD81B00209A
:1049C000DC1B0020814210B5044600D8FEE7FFF74B
:1049D000EDFF091BB0FBF1F303FB1100204410BDF8
:1049E000036823B9016049600348FCF785BC5A6835
:1049F0004A60596001607047481B002043680146C7
:104A000013B90248FFF7ECBF704700BF4C1B0020F2
:104A100038B500250468056054B1606884421CBF45
:104A2000436863604560036808BF00249847F3E764
:104A300038BD43684968981AC00F8A1AB0EBD27F14
:104A400004BF581AC00F704770B505680C4625B9E9
:104A50004B680948BDE8704018478B6898476A68FA
:104A6000831A002BB8BF121A23680146A8BF002280
:104A70000148BDE870401847481B00208B689942E8
:104A800070B506460C4607D00568A94205D10360FB
:104A90001146FFF7D9FFA46070BD2B460022002B02
:104AA000F9D09C4208D01A469B68F8E79368002B1F
:104AB000F1D09B689360EEE7002AF7D1002DEAD091
:104AC000AB683360E7E72DE9F047936807460C468B
:104AD000904698474246824621463846FFF7CEFF29
:104AE000D7F8009000264D4645B15246294620464B
:104AF000FFF79FFF10B92E46AD68F5E746B9C4F839
:104B0000089041463C603846BDE8F047FFF79CBF3F
:104B1000B368A360B460BDE8F08770B5046805466B
:104B20000E467CB18B6898476368C01A002809DB81
:104B3000284632462146FFF7A1FF23682046BDE8FC
:104B40007040184731462846BDE87040FFF77CBFEB
:104B500010B50446FFF7D8FD30B104F10800034951
:104B6000BDE81040FFF7D9BF10BD00BFFC1D01001C
:104B70004160024A01460248FFF7A5BFF01D01004F
:104B8000541B0020002A00DAFEE71144FFF7F0BFB3
:104B900038B50D460446FEF715FC2A460146204668
:104BA000BDE83840FFF7EEBF0146024A0248FFF772
:104BB00065BF00BFF01D0100541B002010B5044666
:104BC000FFF7A2FD30B104F10C000349BDE810402D
:104BD000FFF7A3BF10BD00BFF01D01000023C0E917
:104BE000023343600B2303704FF6FF734380103092
:104BF00000F02ABB10B50B2303704FF6FF73438000
:104C000000230446C0E90133C360103000F048FBC4
:104C10002046FFF7E3FF204610BD38B504460D4699
:104C2000103019B100F096FB10B138BD00F0A8FBB0
:104C300065600020F9E738B5436804460D462BB19E
:104C4000103000F067FB6580002038BD0D20FCE7C8
:104C5000436813B10170002070470D20704708B5FC
:104C6000436823B1103000F061FB002008BD0D2027
:104C7000FCE708B5436823B1103000F051FB002079
:104C800008BD0D20FCE743681BB110F8101B00F0B5
:104C90008BBB0D207047000010B4436823B11AB9D4
:104CA00003485DF8044B18475DF8044B704700BF9C
:104CB000481B002038B5436804460D462BB1103020
:104CC00000F0D9FC00B9A56038BD0D20FCE700005C
:104CD00038B5856804461DB10248A8470023A36083
:104CE00038BD00BF481B002038B51D464368044648
:104CF0002BB1103000F0B8FB00B9E56038BD0D20D5
:104D0000FCE7000010B5436804462BB1C3681BB133
:104D1000024898470023E36010BD00BF481B0020F5
:104D20002DE9F0438FB006460F4690460021102231
:104D300002A806AC99460AAD0AF090FC10220021A8
:104D400020460AF08BFC1022002128460AF086FC3F
:104D50007368DBB10022494602A800F05DFA002228
:104D60001699204600F058FA00221799284600F0BC
:104D700053FA06F11000CDE9004502AB4246394630
:104D800000F0FEFB00200FB0BDE8F0830D20FAE735
:104D900008B5436823B1103000F070FD002008BD55
:104DA0000D20FCE7036858781B7843EA0020704721
:104DB00000F44053B3F5005F22D120F44E5020F0B0
:104DC0003F00B0F5004F21D009D8B0F5046F1DD0D9
:104DD000B0F5446F1AD0003018BF01207047B0F50D
:104DE000404F13D005D848F24003C01A18BF012025
:104DF00070474CF24003984208D04CF64043F4E729
:104E000010F4406F14BF012000207047002070474D
:104E100010F4404318BF80F0400300F4405218BF24
:104E2000C3F38013B2F5005F05D100F44C40B0F538
:104E30004C4F08BF002318467047102804D018288C
:104E40000CBF0820002070470420704700F00700C6
:104E5000012303FA00F010F0880F08D110F0440F7E
:104E600007D110F0220F14BF04200020704710203B
:104E70007047082070470000430708D000F0180072
:104E80000838C0B2102804D8034B185C7047FF20C4
:104E900070470520704700BF081E010010B504468A
:104EA000FFF786FF04F4406300280CBF03210521AF
:104EB000B3F5006F06D0B3F5406F17D023B1FF21D3
:104EC000084610BD0231C9B22046FFF7A1FF08B164
:104ED0000231C9B204F44044B4F5004F08D0B4F52F
:104EE000404F08D0002C18BFFF21E9E70831EAE75E
:104EF0000231C9B2E4E70831FBE708B58388042B27
:104F000005D9FFF74FFFBDE80840FFF7C7BFFF20F7
:104F100008BD8288022A05D903681B781B0701D5C2
:104F2000FFF7EBBFFF20704738B505460C46FFF78B
:104F3000F0FFFF281FBF2B681B5C03F007032370E3
:104F400014BF0020062038BD38B505460C46FFF7D3
:104F5000E0FFFF281FBF2B681B5C03F018032370C2
:104F600014BF0020062038BD38B505460C46FFF7B3
:104F7000D0FFFF281FBF0130C0B22B681B581ABFDB
:104F800023600020062038BD38B505460C46FFF7E3
:104F9000C0FFFF2800D1FEE72A680130C0B2131815
:104FA0001454220A5A70220C240E9A70DC70EB7E84
:104FB00043F00103EB7638BD38B505460C46FFF7E4
:104FC000A8FFFF2802460BD02B68185C00F01800E1
:104FD000FFF733FF1344034400205B79237038BD8F
:104FE0000620FCE738B505460C46FFF792FFFF2880
:104FF000024600D1FEE72B68185C00F01800FFF7AE
:105000001CFF134403445C7138BD10B50446FFF720
:1050100080FFFF2806D02368185CFFF717FF0230D7
:10502000C0B210BD0220FCE710B50446FFF765FFD3
:10503000FF28024610D02368197809070CD5A188EB
:1050400088420BDA185CFFF717FFFF2808D00244EC
:10505000D2B29142B8BFFF22104610BDFF22FBE73B
:105060000246F9E7F8B50646FFF7DEFF84B2FF2CEB
:105070002BD03046FFF796FE830505461AD53046FD
:10508000FFF7C3FF3768B288A31C9BB2191891427F
:1050900007EB04061BDC3C5D04F07F041C44A4B257
:1050A00021188A4213DB3388C3F3C7137F2B01D047
:1050B0008A42E9D105F44053B3F5005F05D005F00D
:1050C0000705032D01D10134A4B2E0B2F8BDFF24DD
:1050D000FBE710B50446FFF7C5FFFF2816BF23689E
:1050E0000020C01810BD10B50446FFF7F2FF23687A
:1050F000C01AC0B210BD38B50546FFF7F4FF04462C
:105100002846FFF782FFAB882044181A80B238BDCA
:1051100010B50446FFF779FFA388181A23681844CE
:1051200010BD2DE9F0410446E2B0002308A8039326
:105130000D4600F010FE23681B781B074FD50DF1BC
:105140000B012046FFF7F0FE002848D103A92046B6
:10515000FFF70AFF0646002841D104AF3B469DF801
:105160000B200399284600F0E8FDA16808A800F08C
:1051700045FC2046FFF749FF05462046FFF7B3FFF1
:1051800080462046FFF7B7FFAB1E0D22DBB241463B
:10519000CDE90072024608A800F03CFC2046FFF76B
:1051A000A2FF2168024608A800F0D4FC2046FFF7C1
:1051B00090FF05462046FFF79EFF2A4603462946F4
:1051C00008A8009600F00CFD2046FFF7A1FF01465D
:1051D00008A800F095FDE37E43F01003E37608A8ED
:1051E00000F0D3FD62B0BDE8F08112B1012A05D014
:1051F00070470B6803604B684360704701F1080318
:10520000013813F8012D00F8012F8B42F9D17047B6
:10521000102200210AF022BA30B50B46044601F1F3
:10522000100518685968224603C20833AB42144679
:10523000F7D130BD102308608B80704701460148CC
:10524000FEF7AEBE481B002038B54FF6FE738380D4
:10525000C38903F0FE0343F4FE43002543F001033A
:105260000446C38145704580C0F80650C0F80A5016
:10527000056180F859502430FFF7CAFF04F134006B
:10528000FFF7C6FF04F14400FFF7C2FF656584F82D
:10529000585004F15C00BDE83840FFF785BC0000C1
:1052A00070B5184D044628460E46FEF755FB207093
:1052B0002846FEF73DFB00256061314604F11800E9
:1052C000102600F0F1FA32462946C4E9075504F1E8
:1052D00024000AF0C3F93246294604F134000AF0EA
:1052E000BDF93246294604F144000AF0B7F92346D5
:1052F000054A43F85C2F20466366FFF7A5FF20466A
:1053000070BD00BF481B00202D580000007840F001
:10531000E40070470148FEF7EDB900BF481B0020CC
:105320008180014800F030BB591B002007B50B6895
:10533000C0F806304B68C0F80A3001226846FFF713
:1053400054FF6946024800F019FB03B05DF804FB06
:10535000591B002010B54378044663B90748FEF78F
:105360005DFA50B90548FEF779FA30B96378012B38
:1053700001D001236370002010BDFEE7481B002010
:1053800010B504465C30FFF70FFC0648FEF766FADE
:1053900030B90448FEF74CFA10B9637803B1607075
:1053A00010BD00BF481B002010B504460846FFF79B
:1053B00045FF20B96378022B1CBF0223637010BD28
:1053C00038B50123044603FA01F10020FFF7FAFA89
:1053D000A37B4FF4A075DB0705FB00F50AD56369D5
:1053E0009879FFF72BFF294604F15C00BDE83840AF
:1053F000FFF7CEBB0148FEF731FAF4E7481B002067
:1054000010B5437803F0FB03032B044626D1037841
:10541000DB0605D443699879FFF710FF00B1FEE77A
:105420006378042B1CBF04236370E3691BB1226AF9
:105430006069012198476169094800F0ABFA0D28BD
:105440000AD16269136943B1002313616269044898
:105450005361616900F09EFA00B1FEE710BD00BF24
:10546000591B00207047000010B5044640780728FB
:1054700004D80123834013F0F90F0CD123789B0744
:105480000BD50748FEF7A8FA6378052B01D0052352
:105490006370002000E00D2010BD0C20FCE700BF71
:1054A000481B00204378022B1CBF02234370183096
:1054B00000F00ABA10B503789B07044600D5FEE752
:1054C0001048FEF739FA7F2806D094F90F307F2B69
:1054D00001D0834200DAE073FDF763FF2369C01A4D
:1054E000002808DA216E04F15C004FF4FA32BDE8BE
:1054F0001040FFF747BB94F90F102046BDE810405D
:10550000FFF7D0BF481B0020007880F02000C0F3D8
:1055100040107047007880F00400C0F380007047AE
:10552000007880F04000C0F38010704710B54269E9
:10553000437812690446C2B1072B1CBF072343708E
:10554000FFF7EEFFA8B10D48FEF7C2FC6369D3E98F
:1055500004218B18C3F1A803C3420AD504F15C00EF
:10556000A839BDE81040FFF70DBB032B01D0032382
:1055700043702046BDE81040FFF742BF481B0020A3
:105580002DE9F043082985B08446884691461D469A
:10559000DDE90C6703D0102914D099B1FEE78CF82F
:1055A000582000F124040FCB84E80F0096E80F0088
:1055B0000CF1340484E80F0097E80F000CF1440468
:1055C00084E80F006046FFF79FFF40B9CDE9017006
:1055D00000962B464A4641460248FEF77BFC05B042
:1055E000BDE8F083481B002038B590F8583093424E
:1055F00004460D4607D1183000F06CF9636D9D42EA
:1056000024BF0135656538BD37B504464069036878
:105610001B781D072DD5C37ED9062AD40DF10701AD
:10562000FFF792FC28BB6069C37EDA0703D494F8C5
:105630005810FFF7D7FC2046FFF766FFC8B19DF86A
:105640000730082B15D1636904F134029A60606950
:10565000C37EDB0709D4656D2946FFF795FC94F8F6
:10566000582029462046FFF7BFFFA11D6069FFF7BC
:1056700058FD03B030BD38B54378052B05460AD038
:105680000024FFF7C1FF28466C8085F85940FFF7DA
:105690004DFF204638BD0D20FCE737B505460C46CA
:1056A000FFF732FF20BB0B681B781A0720D5CB7E93
:1056B000DB071DD50DF102012046FFF745FC00B1C7
:1056C000FEE79DF80230082B12D101A92046FFF712
:1056D0004BFC00B1FEE70DF103012046FFF76CFC27
:1056E00000B1FEE79DF8032001992846FFF77CFFF3
:1056F00003B030BD2DE9F7431E4604465C300D462D
:105700009146FFF751FA0B2E10D002D8002E4AD046
:10571000FEE70E2E47D00F2EFAD10021EB7E5B075D
:1057200004D5AA7904F1180000F0C6F829462046ED
:10573000FFF7B3FF0023A370E378002E35D0204697
:10574000FFF7E8FE074620B16F7E9F4294BF002717
:10575000012704F11808CDE900374A4633462946A7
:10576000404600F0AAF847B3E3780133E370EB7EDC
:105770000E2E43F00203EB7619D1637894F859109A
:10578000062B1CBF062363702046FFF719FE94F812
:1057900059300133DBB2052B28BF052384F859307B
:1057A00003B0BDE8F0830121B8E73746D1E72046D2
:1057B00003B0BDE8F043FFF7B9BE6378022B1CBF0E
:1057C00002236370A87EAB79834201D0FFF736FDD8
:1057D00033464A462946404603B0BDE8F04300F050
:1057E0006DB810B54378033B0446042B1CD8DFE8A2
:1057F00003F0030717130300BDE81040FFF700BED6
:1058000043699879FFF71AFD616920460E2300224B
:10581000BDE81040FFF76EBFBDE81040FFF786BE41
:10582000BDE81040FFF746BE10BD00000148FFF77D
:10583000D8BF00BF6C1B0020C36970B505460C467D
:1058400016462BB121B11AB9026A31462046984753
:105850002846FFF759FE40B93CB1E37D9B0704D5CC
:10586000227D21692846FFF7BFFE3246214605F119
:105870001800BDE8704000F019B8000008B512B17A
:10588000436D8B4200D24165FFF73EFE48B90548A3
:105890001AB1BDE80840FEF751BBBDE80840FEF76D
:1058A0003FBB08BD481B0020704700000148FFF7C0
:1058B000F3B900BF5C1B0020704770470148FFF739
:1058C00007BA00BF5C1B00200148FFF71BBA00BFEE
:1058D0005C1B00207047000070B5002190B0264886
:1058E000FEF741F82448FEF771F82348FEF771F8F7
:1058F0002148FDF78BFF48B11F48FDF7AFFF00B10E
:10590000FEE71D48FDF794FF00B1FEE70CAD4FF632
:10591000FF7119480024FDF7EDFE29461648CDE930
:105920000C44FDF7F1FE4FF6FE711348FDF7FEFE45
:10593000102221460DEB020008AE09F08FFE214631
:105940001022304609F08AFE21461022284609F02E
:1059500085FE04AB22462146CDE901540096064857
:10596000FEF7B8FA21460448FEF7DAFA2146024863
:10597000FDF7F6FF10B070BD481B00200148FDF791
:10598000C3BE00BF481B00200148FDF7CFBE00BFCB
:10599000481B00200148FDF771BF00BF481B0020D5
:1059A00090F88C3013B1123000F048BA704790F87C
:1059B0008C3013B1123000F047BA704710B490F831
:1059C0008C4024B112305DF8044B00F043BA5DF80E
:1059D000044B704790F88C3013B1123000F040BA8D
:1059E000704700000048704700F8FF0708B5FFF750
:1059F000F9FF08BDFF207047FF2070471FB5044620
:105A0000084601A9FFF716FC01A9204600F0B1F9EC
:105A100004B010BD2DE9F04713F0010904460F460C
:105A20009246984602D1043B0C2B00D9FEE749462A
:105A3000CBB201310AB1120AFAE79DF82450089955
:105A4000022B38BF02230D2D28BF0D25C5F10F02F3
:105A50009342B8BFD3B2C3F10F02013B9542DEB20D
:105A6000A8F10203C8BFD5B25B10002F14BF4022BB
:105A7000002246EAC303134384F820312A4604F285
:105A8000211009F0E9FC04F22F1152460F239D4228
:105A900005D2013B01F80129DBB2120AF7E704F550
:105AA00090721146204600F06AF98FB1B7F57F4F2A
:105AB00094F8202194F82131C7F30720F9B229D2B4
:105AC00042404B4084F8202184F821314FF00209F4
:105AD0002A46089984F8306104F2311009F0BCFCC0
:105AE00005F23110C5F10F020021204409F0B6FD86
:105AF0000023C4E9553AC4F85C31102384F864519A
:105B0000C4F85071A4F86091A4F8623184F86581FA
:105B1000BDE8F08783F0FE0384F8213194F8223148
:105B200083EA176384F8223194F82331D24383EA5D
:105B3000174384F8202184F8233194F8242194F821
:105B4000253142404B4084F8242184F825314FF020
:105B50000609BDE72DE9F843D0F854311546134442
:105B6000D0F850219342044621D80E4601EB050897
:105B700000F590774FF00009B04519D0B4F86031C6
:105B8000102B06D13A463946204600F0F8F8A4F822
:105B90006091B4F860315A1C2344A4F8602116F8CF
:105BA000012B93F820114A4083F82021E4E7FEE717
:105BB000D4F854311D44D4F85031C4F854519D42A6
:105BC0000BD1B4F860312BB104F590721146204628
:105BD00000F0D5F80023A4F86031BDE8F883000098
:105BE0002DE9F74F98469DF830300193D0F85C319D
:105BF0001746D0F858214344934204460E4600D934
:105C0000FEE7DFF8F8A00025AAEB000A00F5A07B6C
:105C1000454550D0B4F86231102B17D194F8641177
:105C200004F23F120AEB0203994206DA13780133B9
:105C3000DBB202F80139002BF4D05A4604F5987112
:105C4000204600F09CF80023A4F86231B4F86221E9
:105C5000019B511C89B222441BBB16F80590A4F885
:105C6000621192F8402189EA02027A55B4F8602163
:105C7000102A08D104F590721146204600F07FF8F2
:105C80000022A4F86021B4F86021511C2244A4F839
:105C9000601192F8201189EA010382F82031013560
:105CA000B6E7785DA4F8621192F8403180EA030902
:105CB00006F80590DAE7D4F85C311D44D4F8583181
:105CC000C4F85C519D4215D3B4F860312BB104F592
:105CD00090721146204600F052F894F8642102F2C6
:105CE00031100021C2F10F02204403B0BDE8F04F93
:105CF00009F0B4BC03B0BDE8F08F00BFD0FEFFFFD9
:105D000038B5D0E956329A4204460D4600D0FEE737
:105D100000F5987100F5A07200F031F804F590716B
:105D2000002394F865219A4206DD11F8012BC87F03
:105D30004240EA540133F4E738BD10B504681C60F2
:105D400044685C60080E1872080C5872080A987251
:105D5000D9721A7310BD00F1080310B503604FF437
:105D60008C738380044600F018F800B1FEE72046EB
:105D700010BD08B500F020F800B1FEE708BD08B579
:105D800000F034F800B1FEE708BD10B5044600F09D
:105D900041F800B1FEE7204610BD08B540B1838848
:105DA000B3F58C7F06D3006800F03CFE002008BDF0
:105DB0000720FCE70120FAE713B50446684600F027
:105DC00038F87CB1A388B3F58C7F0DD3BDF80420DF
:105DD00000992068D20000F049F8003018BF012077
:105DE00002B010BD0720FBE70120F9E708B5134614
:105DF00060B18288B2F58C7F0AD30A46006801211F
:105E000000F050FE003018BF012008BD0720FCE75D
:105E10000120FAE708B540B18388B3F58C7F06D33B
:105E2000006800F00DFE002008BD0720FCE70120FF
:105E3000FAE70A6802608A88828070470148FFF7A3
:105E4000FBBC00BF6C1B00200148FFF70BBB00BF71
:105E50006C1B00200148FFF74DBC00BF6C1B0020ED
:105E60000148FFF71FBB00BF6C1B0020E0B1D9B198
:105E7000C02A08B507D0B2F5807F12D0802A0DD095
:105E80006FF01F0008BD0C23036000F1080343609E
:105E9000D208184600F07AFB002008BD0A230360F0
:105EA000F3E70E230360F0E76FF02000704700BFB8
:105EB00010B504461046D4E90032063B9B0000F0C2
:105EC00037FA002010BD00BF10B504461046D4E9D3
:105ED0000032063B9B0000F003F8002010BD00BF1D
:105EE0002DE9F14F03F11C0402EB840C4FEA930BF4
:105EF0008A68CB680868496800F046F93CE9F00018
:105F00006040694072407B400BF1060E4EE083EA30
:105F1000134480EA134582EA134746BA96EA3444AA
:105F2000604000F00F1684EA063420F00F1684EA71
:105F3000161054BA94EA0106724002F00F1486EA71
:105F4000043622F00F1486EA14124CBA65406940F8
:105F500001F00F1485EA043521F00F1485EA1411BD
:105F60005CBA67407B4003F00F1487EA043723F0E4
:105F70000F1487EA141344BA44404DBA4D4056BA40
:105F800056405FBA5F4087EA174886EA174B84EAB3
:105F900017464FEA38488BEA1B4485EA1B4788EAD4
:105FA0001B4580EA3440694072407B4000F0703409
:105FB00000F0803500F00F3040EA440040EAD500A0
:105FC00080EA900404F0332480EA8400604001F009
:105FD000703401F0803501F00F3141EA440141EAAB
:105FE000D50181EA910404F0332481EA84016140FF
:105FF00002F0703402F0803502F00F3242EA4402BF
:1060000042EAD50282EA920404F0332482EA84024E
:10601000624003F0703403F0803503F00F3343EA3D
:10602000440343EAD50383EA930404F0332483EA68
:1060300084036340C943DB4381EA000483EA0446E6
:1060400086EA020183EA014382EA334583EA144384
:1060500083EA040484EA00077FEA040A8AEA024A1F
:106060008AEA010B87EA11488AEA374A80EA060180
:1060700081EA1A418AEA030A04EA0A00454088EAEA
:10608000040707EA0B0041408AEA0B0608EA06000B
:1060900084EA34428AEA3A4602EA06035840454016
:1060A000414087EA37438BEA3B4003EA000985EA2F
:1060B000090582EA0309464009EA0606714085EAB5
:1060C000010005EA3546464006EA314181EA3041A1
:1060D00081EA364606EA304686EA354634400F40C5
:1060E00086EA010508EA050886EA3640024088EAA1
:1060F000020881EA314213405C4080EA020309EA67
:10610000030987EA0907674088EA040806EA0A06DD
:1061100001EA0B018AEA0B0425408AEA3A4420404E
:1061200045408BEA3B4B02EA0B02564084EA0B04E3
:10613000234059406E40694087EA364080EA384043
:1061400080EA060380EA104481EA134585EA344573
:1061500085EA17427D4082EA354180EA05403CE904
:10616000F0006040694072407B40BEF1010E3FF696
:10617000CEAE00F05FF810BC20606160A260E3600A
:10618000BDE8F08F00F002BA80EA101404F0F014B9
:1061900080EA0410604081EA111404F0F01481EAEE
:1061A0000411614082EA121404F0F01482EA04122D
:1061B000624083EA131404F0F01483EA041363408A
:1061C00080EA102404F47F4480EA0420604081EADD
:1061D000112404F47F4481EA0421614082EA1224FC
:1061E00004F47F4482EA0422624083EA132404F424
:1061F0007F4483EA0423634081EA500404F0553469
:1062000080EA4400614083EA520404F0553482EA93
:106210004402634082EA900404F0333480EA84004C
:10622000624083EA910404F0333481EA84016340DC
:10623000704700BF82EA900404F0333480EA84009F
:10624000624083EA910404F0333481EA84016340BC
:1062500081EA500404F0553480EA4400614083EA46
:10626000520404F0553482EA4402634080EA102468
:1062700004F47F4480EA0420604081EA112404F49D
:106280007F4481EA0421614082EA122404F47F44BD
:1062900082EA0422624083EA132404F47F4483EAFE
:1062A0000423634080EA101404F0F01480EA041020
:1062B000604081EA111404F0F01481EA0411614095
:1062C00082EA121404F0F01482EA0412624083EAB3
:1062D000131404F0F01483EA04136340704700BF02
:1062E0002DE9F04F4FF2F00280EA1031114080EAC0
:1062F0000130484041088208C3084FF0000EA3E077
:1063000000F0113001F0113102F0113203F01133BD
:1063100040EA410040EA820040EAC3004FF2F00246
:1063200080EA1031114080EA01304840BDE8F08F2A
:106330002DE9F14F94464FEA930B8A68CB680868C1
:106340004968FFF721FF0BF1060E33E083EA13449F
:1063500080EA134582EA134746BA96EA344460401D
:1063600000F00F1684EA063420F00F1684EA1610A7
:1063700054BA94EA0106724002F00F1486EA043619
:1063800022F00F1486EA14124CBA6540694001F0FD
:106390000F1485EA043521F00F1485EA14115CBA54
:1063A00067407B4003F00F1487EA043723F00F1493
:1063B00087EA1413BCE8F0006040694072407B40FB
:1063C00000F0E03400F0103500F00F3040EA5400E7
:1063D00040EAC50080EA900404F0332480EA840097
:1063E000604001F0E03401F0103501F00F3141EA76
:1063F000540141EAC50181EA910404F0332481EAA1
:106400008401614002F0E03402F0103502F00F32F6
:1064100042EA540242EAC50282EA920404F03324BA
:1064200082EA8402624003F0E03403F0103503F0A6
:106430000F3343EA540343EAC50383EA930404F0A9
:10644000332483EA8403634081EA324787EA1345B1
:1064500081EA354690EA060484EA034B82EA1B424D
:1064600080EA044484EA054483EA144A85EA144431
:106470008BEA044B84EA374481EA0B4181EA1641F6
:1064800004EA0A00454082EA04082BEA0800414079
:106490008AEA0B0602EA060084EA34438AEA3A46AC
:1064A00003EA060778404540414088EA38478BEACE
:1064B0003B4007EA000985EA090583EA07094640E7
:1064C00006EA0906714085EA010005EA35464640BC
:1064D00006EA314181EA304181EA364606EA304631
:1064E00086EA3546344008EA010886EA01052A4072
:1064F00086EA364003405A4081EA31431F407C40DF
:1065000080EA030709EA070988EA0908544088EA8B
:10651000020806EA0A0601EA0B018AEA0B021540A4
:106520008AEA3A42104045408BEA3B4003405E40D5
:106530004240174079404D404E40E443F64386EADE
:1065400018435D4085EA054083EA134386EA034128
:1065500083EA384284EA114383EA04435FEA33431F
:10656000BEF1010E3FF6F2AE3FF5CAAEBCE8F00058
:106570006040694072407B40FFF75CFE10BC2060C9
:106580006160A260E360BDE8F08F00BF2DE9F041DB
:1065900002F11C050646074600EB850851F8040B7E
:1065A00046F8040B043AF9D14FF0010CFFF798FEBE
:1065B0005FEA302080EA0C004FEA4C0C4FEA1C21C5
:1065C00040F21B1201FB02F28CEA020C1ECF41408A
:1065D0004A4053405C401EC62000464510D02C2D3A
:1065E000E4D03C2D06D1FFF77BFE06CF41404A4068
:1065F00006C6100006CF41404A4006C61000D5E747
:1066000036E90F00FFF7C0FD86E80F00043DF7D123
:10661000BDE8F08190B4ADF5016D00AF0023C7F87F
:106620000C380123C7F8083826E007F58063D7F84F
:106630000C28D7F8081843F822103B46D7F808284A
:10664000D7F80C1843F82210D7F808385A00D7F8B2
:10665000083803F08003002B01D01B2300E0002347
:106660005A40D7F808385340DBB2C7F80838D7F893
:106670000C380133C7F80C38D7F80C38FF2BD4DDB1
:106680000023C7F80C380123C7F808381BE0D7F8F7
:106690000828D849D7F80C3841F82320D7F808380B
:1066A0005A00D7F8083803F08003002B01D01B23D1
:1066B00000E000235340DBB2C7F80838D7F80C38A5
:1066C0000133C7F80C38D7F80C38092BDFDDCA4B7B
:1066D00063221A70C94B002283F863200123C7F894
:1066E0000C386DE03B46D7F80C2853F82230C3F144
:1066F000FF0207F5806353F82230C7F80838D7F84F
:106700000838C7F80438D7F804385A00D7F80438DE
:10671000DB111343DBB2C7F80438D7F80828D7F8E1
:1067200004385340C7F80838D7F804385A00D7F867
:106730000438DB111343DBB2C7F80438D7F8082854
:10674000D7F804385340C7F80838D7F804385A0047
:10675000D7F80438DB111343DBB2C7F80438D7F895
:106760000828D7F804385340C7F80838D7F8043851
:106770005A00D7F80438DB111343DBB2C7F80438EA
:10678000D7F8043883F06303D7F808285340C7F8D4
:106790000838D7F80838D9B2974AD7F80C381344D4
:1067A0000A461A70D7F80C38D9B2944AD7F8083884
:1067B00013440A461A70D7F80C380133C7F80C385E
:1067C000D7F80C38FF2B8DDD0023C7F80C3806E115
:1067D000894AD7F80C3813441B78C7F80838D7F81B
:1067E00008385A00D7F8083803F08003002B01D08E
:1067F0001B2300E000235340DBB2C7F80438D7F86E
:106800000428D7F808385340DBB2C7F80038D7F867
:1068100008381A02D7F804385A40D7F808381B0449
:106820005A40D7F800381B065A407549D7F80C383B
:1068300041F82320724AD7F80C3852F823304FEA37
:1068400033627049D7F80C3841F823206D4AD7F8E5
:106850000C3852F823304FEA33626B49D7F80C38C2
:1068600041F82320684AD7F80C3852F823304FEA11
:1068700033626649D7F80C3841F823205F4AD7F8CD
:106880000C3813441B78C7F80838D7F80838002BA1
:1068900018D03B469A6B3B46D7F8081853F821307E
:1068A0001A445B4B82FB03341319D911D317C91A4D
:1068B0000B461B025B1AD11A07F5806353F821308F
:1068C000184600E00020D7F80838002B18D03B46C7
:1068D0005A6A3B46D7F8081853F821301A444C4BF3
:1068E00082FB03341319D911D317C91A0B461B02A3
:1068F0005B1AD11A07F5806353F821301B0200E0C0
:1069000000235840D7F80838002B18D03B465A6B64
:106910003B46D7F8081853F821301A443C4B82FB09
:1069200003341319D911D317C91A0B461B025B1A6A
:10693000D11A07F5806353F821301B0400E00023CF
:106940005840D7F80838002B18D03B46DA6A3B4647
:10695000D7F8081853F821301A442D4B82FB033422
:106960001319D911D317C91A0B461B025B1AD11A76
:1069700007F5806353F821301B0600E0002380EA0E
:1069800003022449D7F80C3841F82320214AD7F8CC
:106990000C3852F823304FEA33621F49D7F80C38CD
:1069A00041F823201C4AD7F80C3852F823304FEA1C
:1069B00033621A49D7F80C3841F82320174AD7F820
:1069C0000C3852F823304FEA33621549D7F80C38A7
:1069D00041F82320D7F80C380133C7F80C38D7F822
:1069E0000C38FF2B7FF7F4AE00BF07F50167BD46FB
:1069F00090BC7047E03D0020E01B0020E02C002010
:106A0000E01C0020E0200020E0240020E0280020FE
:106A100081808080E02D0020E0310020E0350020E2
:106A2000E039002080B582B000AF78604FF48C72FE
:106A30000021786808F012FE00BF0837BD4680BD0F
:106A400080B582B000AF78607B68002B05D04FF432
:106A50008C71786800F042F800E000BF0837BD464E
:106A600080BD00BF80B584B000AFF860B9607A60C7
:106A70007A68B968F868FFF71BFA00BF1037BD469F
:106A800080BD00BF80B584B000AFF860B9607A60A7
:106A90007A68B968F868FFF717FA00BF1037BD4683
:106AA00080BD00BF80B584B000AFF860B9607A6087
:106AB0003B60BB68012B06D13A687968F868FFF73C
:106AC000F7F9034605E03A687968F868FFF7FCF9DA
:106AD000034618461037BD4680BD00BF38B131B1FE
